{
  "transactions": [
    {
      "hash": null,
      "transactionType": "CREATE",
      "contractName": "Counter",
      "contractAddress": "0x760f270f75b62ce2213ca982d89538b12574a547",
      "function": null,
      "arguments": null,
      "transaction": {
        "from": "0x1702ab33ae203ed25163ec1d380c11bb6a8813a7",
        "gas": "0x21dd9",
        "value": "0x0",
        "input": "0x6080604052348015600f57600080fd5b5060f78061001e6000396000f3fe6080604052348015600f57600080fd5b5060043610603c5760003560e01c80633fb5c1cb1460415780638381f58a146053578063d09de08a14606d575b600080fd5b6051604c3660046083565b600055565b005b605b60005481565b60405190815260200160405180910390f35b6051600080549080607c83609b565b9190505550565b600060208284031215609457600080fd5b5035919050565b60006001820160ba57634e487b7160e01b600052601160045260246000fd5b506001019056fea2646970667358221220380554e236eca25e41ce3f83305e720d4442aaad4e06b3f2ca8b7900b823776c64736f6c634300081a0033",
        "nonce": "0x0",
        "chainId": "0x1"
      },
      "additionalContracts": [],
      "isFixedGasLimit": false
    },
    {
      "hash": null,
      "transactionType": "CALL",
      "contractName": "Counter",
      "contractAddress": "0x760f270f75b62ce2213ca982d89538b12574a547",
      "function": "setNumber(uint256)",
      "arguments": [
        "69420"
      ],
      "transaction": {
        "from": "0x1702ab33ae203ed25163ec1d380c11bb6a8813a7",
        "to": "0x760f270f75b62ce2213ca982d89538b12574a547",
        "gas": "0xeacc",
        "value": "0x0",
        "input": "0x3fb5c1cb0000000000000000000000000000000000000000000000000000000000010f2c",
        "nonce": "0x1",
        "chainId": "0x1"
      },
      "additionalContracts": [],
      "isFixedGasLimit": false
    }
  ],
  "receipts": [],
  "libraries": [],
  "pending": [],
  "returns": {},
  "timestamp": 1718390234,
  "chain": 1,
  "commit": "e6795e9"
}